:060000000A128A110C280F
:10000800FE00030EF4000A08F5000A128A111E28E1
:100018000A128A110F28F601F701F801F901FA010D
:1000280083120313A601A701A801A90183010A12DB
:100038008A114029831203130C1F232824287E28A1
:100048001F0CF200720C0F39003A031D2C282D28C2
:100058004E280A128A11FA210A128A117008F2002F
:100068007108F3000310F30CF20C0310F30CF20CFC
:10007800FF307205F80000307305F9000A128A1182
:10008800FA210A128A1103307005F6000030710552
:10009800F7007B281F0CF200720C0F39013A031D80
:1000A800562857287B280A128A11FA210A128A111F
:1000B8007008F2007108F3000310F30CF20C03103F
:1000C800F30CF20CFF30720583120313A800003002
:1000D8007305A9000A128A11FA210A128A1103303B
:1000E800700583120313A60000307105A700831260
:1000F80003130C138C1D81288228C5280A128A1123
:1001080004220A128A11F2007208FA0048307A06AC
:10011800031D8F289028972878080A128A1114221C
:100128000A128A11C2284C307A06031D9C289D2881
:10013800A42876080A128A1114220A128A11C228DF
:1001480041307A06031DA928AA28B328831203136D
:1001580028080A128A1114220A128A11C228423067
:100168007A06031DB828B928C22883120313260863
:100178000A128A1114220A128A11C228831203133E
:100188008C1175088A00740E8300FE0E7E0E09001D
:1001980083120313A400E5283F309F0507291F0891
:1001A8003F3940389F0007291F083F3980389F0092
:1001B8000729C0309F0407291F083F3940389F008E
:1001C80007292408A200A3012308003A0319ED28EF
:1001D800E0282208003A0319D028013A0319D32845
:1001E800033A0319D828013A0319DD28E0288316B1
:1001F80003131F122329831603131F16232983169B
:1002080003131F1223292008A200A3012308003A80
:1002180003190F2903292208003A0319FB28013A78
:100228000319FF280329831603139F123529831600
:1002380003139F163529831603139F12352983123A
:1002480003132108A200A3012308003A03192D294A
:100258001F292208003A03191729013A03191B29F3
:100268001F299F17831203131F14831603130C17D8
:10027800831203130C13080001300A128A11822119
:100288000A128A1183120313A001A10100300A1275
:100298008A11CC200A128A110A128A11BD210A1267
:1002A8008A11831203139F185A295B2955291F0C99
:1002B800A500250C0F39003A031D63296429692913
:1002C8001F08C33904389F0074291F0CA500250C8A
:1002D8000F39013A031D712972297429C3309F050A
:1002E800023083120313A500A50B7829000083129E
:1002F80003139F1455290A128A110C288312031319
:10030800A200A529831603130F088F3940388F00E0
:10031800BB29831603130F088F3950388F00BB2968
:10032800831603130F088F3960388F00BB2970308C
:10033800831603138F04BB297030831603138F04AD
:10034800BB292208A000A1012108003A0319AD2900
:10035800A0292008013A03198629033A03198D298F
:10036800063A031994290C3A03199B29A0290F145A
:1003780008000330831603178800890183160313C6
:10038800851605148514831203138501A001A101A4
:10039800A20124300A128A11DC210A128A118B1751
:1003A800831203138C11831603138C150B17080083
:1003B80083120313A30083160313871283120313F4
:1003C800231DE729E829EE29220883160313940040
:1003D8008715F42920082204831603139400871133
:1003E80083120313230821049400080083120313C3
:1003F8000C131E08F100831603131E08F0000800F2
:100408000A128A110D220A128A1183120313130881
:10041800080083160313141C122A132A0D2A080035
:0C042800F000700883120313930008001A
:08400000FF3FFF3FFF3FFF3FC0
:04400E00D420FF3F7C
:00000001FF
